:020000040800F2
:10000000600600200D0200084B0200084D020008A7
:100010004F020008510200085302000800000000CF
:100020000000000000000000000000005502000871
:100030005702000800000000590200085B02000897
:100040005D0200085D0200085D0200085D02000814
:100050005D0200085D0200085D0200085D02000804
:10006000150300082D0300085D0200085D0200086A
:100070005D0200085D0200085D0200085D020008E4
:100080005D0200085D0200085D0200085D020008D4
:100090005D0200085D0200085D0200085D020008C4
:1000A0005D0200085D0200085D0200085D020008B4
:1000B0005D0200085D0200085D0200085D020008A4
:1000C0005D0200085D0200085D0200085D02000894
:1000D0005D0200085D0200085D0200085D02000884
:1000E0005D0200085D0200085D0200085D02000874
:1000F0005D0200085D0200085D0200085D02000864
:100100005D0200085D0200085D0200085D02000853
:100110005D0200085D0200085D0200085D02000843
:100120005D0200085D0200085D0200085D02000833
:100130005D0200085D0200085D0200085D02000823
:100140005D0200085D0200085D0200085D02000813
:100150005D0200085D0200085D0200085D02000803
:100160005D0200085D0200085D0200085D020008F3
:100170005D0200085D0200085D020008000000004A
:100180005D0200085D02000800F002F800F02EF8A1
:100190000AA090E8000C82448344AAF10107DA45E2
:1001A00001D100F023F8AFF2090EBAE80F0013F006
:1001B000010F18BFFB1A43F0010318476403000046
:1001C000740300000023002400250026103A28BFF5
:1001D00078C1FBD8520728BF30C148BF0B607047B9
:1001E0001FB500F090F91FBD10B510BD00F057F815
:1001F0001146FFF7F5FF00F065F900F075F803B45C
:10020000FFF7F2FF03BC00F07DF800001748184923
:10021000184B99423CBF50F8042B41F8042BF8D3FB
:10022000154B16494FF000028B4238BF43F8042BA0
:10023000FAD3DFF84C00016841F470010160BFF3AC
:100240004F8FBFF36F8F0F480047FEE7FEE7FEE7D3
:10025000FEE7FEE7FEE7FEE7FEE7FEE7FEE700005B
:1002600009480A490A4A0B4B70470000300500084C
:100270000000002000000020000000206006002098
:1002800088ED00E089010008600000206006002081
:10029000600200206002002070477047704775467A
:1002A00000F02CF8AE4605006946534620F00700E2
:1002B000854618B020B5FFF7D3FFBDE820404FF0CA
:1002C00000064FF000074FF000084FF0000BAC465F
:1002D000ACE8C009ACE8C009ACE8C009ACE8C009AA
:1002E00021F007018D46704710B50446AFF300803A
:1002F0002046BDE81040FFF782BF0000004870476D
:100300000000002001491820ABBEFEE726000200D5
:100310007047000080B540F21441C4F20101086842
:1003200040F00400086000F0DBF880BD80B540F2CA
:100330001441C4F20101086840F00800086000F0B0
:10034000D9F880BD81B08DF803009DF90300002825
:100350000ED4FFE79DF9031001F01F020120904029
:100360004A094EF20011CEF2000141F82200FFE7E7
:1003700001B0704780B50820FFF7E4FF41F260014B
:10038000C4F20201086840F0010008600821C4F2CC
:100390000101086820F4E0600860086840F400701B
:1003A000086040F20041C4F20101086840F0040016
:1003B000086040F20841C4F20101086840F00400FE
:1003C000086080BD80B50920FFF7BCFF41F26001E5
:1003D000C4F20201086840F0010008600821C4F27C
:1003E0000101086820F4E0400860086840F400500B
:1003F000086040F20041C4F20101086840F00800C2
:10040000086040F20C41C4F20101086840F00800A5
:10041000086080BD41F24C01C4F20201086840F05E
:100420000200086040F20041C4F60001086820F4B0
:1004300040700860086840F480700860086820F424
:1004400040600860086840F48060086040F2044141
:10045000C4F60001086820F010000860086820F069
:100460002000086040F20C41C4F60001086820F446
:1004700040700860086820F4406008607047000021
:1004800041F24C01C4F20201086840F00400086027
:1004900040F60001C4F60001086820F03000086052
:1004A000086820F0C000086040F60C01C4F60001A6
:1004B000086820F030000860086820F0C00008607C
:1004C0007047000080B582B000200190FFF7A2FFC6
:1004D000FFF7D6FFFFF74EFFFFF774FFFFE7FEE7DA
:1004E00040F21441C4F60001086880F01000086072
:1004F0007047000040F21441C4F60001086880F023
:10050000200008607047F1EE100A4FF6FF71C0F24C
:10051000C03120EA010040F04070E1EE100A70475F
:10052000300500080000002060060000C40100083B
:040000050800018965
:00000001FF
